{
  "contractName": "DiceMarket",
  "abi": [
    {
      "inputs": [
        {
          "internalType": "contract Dice",
          "name": "diceAddress",
          "type": "address"
        },
        {
          "internalType": "uint256",
          "name": "fee",
          "type": "uint256"
        }
      ],
      "stateMutability": "nonpayable",
      "type": "constructor"
    },
    {
      "inputs": [],
      "name": "comissionFee",
      "outputs": [
        {
          "internalType": "uint256",
          "name": "",
          "type": "uint256"
        }
      ],
      "stateMutability": "view",
      "type": "function"
    },
    {
      "inputs": [
        {
          "internalType": "uint256",
          "name": "id",
          "type": "uint256"
        },
        {
          "internalType": "uint256",
          "name": "price",
          "type": "uint256"
        }
      ],
      "name": "list",
      "outputs": [],
      "stateMutability": "nonpayable",
      "type": "function"
    },
    {
      "inputs": [
        {
          "internalType": "uint256",
          "name": "id",
          "type": "uint256"
        }
      ],
      "name": "unlist",
      "outputs": [],
      "stateMutability": "nonpayable",
      "type": "function"
    },
    {
      "inputs": [
        {
          "internalType": "uint256",
          "name": "id",
          "type": "uint256"
        }
      ],
      "name": "checkPrice",
      "outputs": [
        {
          "internalType": "uint256",
          "name": "",
          "type": "uint256"
        }
      ],
      "stateMutability": "view",
      "type": "function"
    },
    {
      "inputs": [
        {
          "internalType": "uint256",
          "name": "id",
          "type": "uint256"
        }
      ],
      "name": "buy",
      "outputs": [],
      "stateMutability": "payable",
      "type": "function"
    },
    {
      "inputs": [],
      "name": "getContractOwner",
      "outputs": [
        {
          "internalType": "address",
          "name": "",
          "type": "address"
        }
      ],
      "stateMutability": "view",
      "type": "function"
    },
    {
      "inputs": [],
      "name": "withDraw",
      "outputs": [],
      "stateMutability": "nonpayable",
      "type": "function"
    }
  ],
  "bytecode": "0x608060405233600260006101000a81548173ffffffffffffffffffffffffffffffffffffffff021916908373ffffffffffffffffffffffffffffffffffffffff16021790555034801561005157600080fd5b5060405162000ba738038062000ba78339818101604052810190610075919061016e565b816000806101000a81548173ffffffffffffffffffffffffffffffffffffffff021916908373ffffffffffffffffffffffffffffffffffffffff1602179055508060018190555050506101ae565b600080fd5b600073ffffffffffffffffffffffffffffffffffffffff82169050919050565b60006100f3826100c8565b9050919050565b6000610105826100e8565b9050919050565b610115816100fa565b811461012057600080fd5b50565b6000815190506101328161010c565b92915050565b6000819050919050565b61014b81610138565b811461015657600080fd5b50565b60008151905061016881610142565b92915050565b60008060408385031215610185576101846100c3565b5b600061019385828601610123565b92505060206101a485828601610159565b9150509250929050565b6109e980620001be6000396000f3fe6080604052600436106100705760003560e01c806350fd73671161004e57806350fd7367146100f4578063741a75911461011d578063bf5a4dd314610148578063d96a094a1461017157610070565b80630fdb1c10146100755780631de7463a1461008c578063442890d5146100c9575b600080fd5b34801561008157600080fd5b5061008a61018d565b005b34801561009857600080fd5b506100b360048036038101906100ae9190610785565b61022c565b6040516100c091906107c1565b60405180910390f35b3480156100d557600080fd5b506100de610249565b6040516100eb919061081d565b60405180910390f35b34801561010057600080fd5b5061011b60048036038101906101169190610838565b610273565b005b34801561012957600080fd5b50610132610360565b60405161013f91906107c1565b60405180910390f35b34801561015457600080fd5b5061016f600480360381019061016a9190610785565b610366565b005b61018b60048036038101906101869190610785565b610579565b005b600260009054906101000a900473ffffffffffffffffffffffffffffffffffffffff1673ffffffffffffffffffffffffffffffffffffffff163373ffffffffffffffffffffffffffffffffffffffff160361022a573373ffffffffffffffffffffffffffffffffffffffff166108fc479081150290604051600060405180830381858888f19350505050158015610228573d6000803e3d6000fd5b505b565b600060036000838152602001908152602001600020549050919050565b6000600260009054906101000a900473ffffffffffffffffffffffffffffffffffffffff16905090565b60008054906101000a900473ffffffffffffffffffffffffffffffffffffffff1673ffffffffffffffffffffffffffffffffffffffff1663c41a360a836040518263ffffffff1660e01b81526004016102cc91906107c1565b602060405180830381865afa1580156102e9573d6000803e3d6000fd5b505050506040513d601f19601f8201168201806040525081019061030d91906108a4565b73ffffffffffffffffffffffffffffffffffffffff163373ffffffffffffffffffffffffffffffffffffffff161461034457600080fd5b8060036000848152602001908152602001600020819055505050565b60015481565b60008054906101000a900473ffffffffffffffffffffffffffffffffffffffff1673ffffffffffffffffffffffffffffffffffffffff1663f2d03fcf826040518263ffffffff1660e01b81526004016103bf91906107c1565b602060405180830381865afa1580156103dc573d6000803e3d6000fd5b505050506040513d601f19601f8201168201806040525081019061040091906108a4565b73ffffffffffffffffffffffffffffffffffffffff163373ffffffffffffffffffffffffffffffffffffffff161461043757600080fd5b6000600360008381526020019081526020016000208190555060008054906101000a900473ffffffffffffffffffffffffffffffffffffffff1673ffffffffffffffffffffffffffffffffffffffff1663b7760c8f8260008054906101000a900473ffffffffffffffffffffffffffffffffffffffff1673ffffffffffffffffffffffffffffffffffffffff1663f2d03fcf856040518263ffffffff1660e01b81526004016104e691906107c1565b602060405180830381865afa158015610503573d6000803e3d6000fd5b505050506040513d601f19601f8201168201806040525081019061052791906108a4565b6040518363ffffffff1660e01b81526004016105449291906108d1565b600060405180830381600087803b15801561055e57600080fd5b505af1158015610572573d6000803e3d6000fd5b5050505050565b600060036000838152602001908152602001600020540361059957600080fd5b60015460036000838152602001908152602001600020546105ba9190610929565b3410156105c657600080fd5b60008060009054906101000a900473ffffffffffffffffffffffffffffffffffffffff1673ffffffffffffffffffffffffffffffffffffffff1663f2d03fcf836040518263ffffffff1660e01b815260040161062291906107c1565b602060405180830381865afa15801561063f573d6000803e3d6000fd5b505050506040513d601f19601f8201168201806040525081019061066391906108a4565b90508073ffffffffffffffffffffffffffffffffffffffff166108fc6001543461068d919061097f565b9081150290604051600060405180830381858888f193505050501580156106b8573d6000803e3d6000fd5b5060008054906101000a900473ffffffffffffffffffffffffffffffffffffffff1673ffffffffffffffffffffffffffffffffffffffff16631b9194c683336040518363ffffffff1660e01b81526004016107149291906108d1565b600060405180830381600087803b15801561072e57600080fd5b505af1158015610742573d6000803e3d6000fd5b505050505050565b600080fd5b6000819050919050565b6107628161074f565b811461076d57600080fd5b50565b60008135905061077f81610759565b92915050565b60006020828403121561079b5761079a61074a565b5b60006107a984828501610770565b91505092915050565b6107bb8161074f565b82525050565b60006020820190506107d660008301846107b2565b92915050565b600073ffffffffffffffffffffffffffffffffffffffff82169050919050565b6000610807826107dc565b9050919050565b610817816107fc565b82525050565b6000602082019050610832600083018461080e565b92915050565b6000806040838503121561084f5761084e61074a565b5b600061085d85828601610770565b925050602061086e85828601610770565b9150509250929050565b610881816107fc565b811461088c57600080fd5b50565b60008151905061089e81610878565b92915050565b6000602082840312156108ba576108b961074a565b5b60006108c88482850161088f565b91505092915050565b60006040820190506108e660008301856107b2565b6108f3602083018461080e565b9392505050565b7f4e487b7100000000000000000000000000000000000000000000000000000000600052601160045260246000fd5b60006109348261074f565b915061093f8361074f565b9250827fffffffffffffffffffffffffffffffffffffffffffffffffffffffffffffffff03821115610974576109736108fa565b5b828201905092915050565b600061098a8261074f565b91506109958361074f565b9250828210156109a8576109a76108fa565b5b82820390509291505056fea2646970667358221220a1d348ba6450ca04caea2b20fe8e0d91a3c0a814eefb4956110292c41410a61464736f6c634300080d0033",
  "immutableReferences": {},
  "source": "//SPDX-License-Identifier: MIT\npragma solidity ^0.8.0;\nimport \"./Dice.sol\";\n\ncontract DiceMarket {\n\n    Dice diceContract;\n    uint256 public comissionFee;\n    address _owner = msg.sender;\n    mapping(uint256 => uint256) listPrice;\n     constructor(Dice diceAddress, uint256 fee) {\n        diceContract = diceAddress;\n        comissionFee = fee;\n    }\n\n\n    //list a dice for sale. Price needs to be >= value + fee\n    function list(uint256 id, uint256 price) public {\n       require(msg.sender == diceContract.getOwner(id));\n       listPrice[id] = price;\n    }\n\n    function unlist(uint256 id) public {\n       require(msg.sender == diceContract.getPrevOwner(id));\n       listPrice[id] = 0;\n       diceContract.transfer(id, diceContract.getPrevOwner(id));\n  }\n\n    // get price of dice\n    function checkPrice(uint256 id) public view returns (uint256) {\n       return listPrice[id];\n }\n\n    // Buy the dice at the requested price\n    function buy(uint256 id) public payable {\n       require(listPrice[id] != 0); //is listed\n       require(msg.value >= (listPrice[id] + comissionFee)); //offerred price meets minimum ask\n\n       address payable recipient = payable(diceContract.getPrevOwner(id));\n       recipient.transfer(msg.value - comissionFee);    //transfer (price-comissionFee) to real owner\n       diceContract.transferAfterBuy(id, msg.sender);\n    }\n\n    function getContractOwner() public view returns(address) {\n       return _owner;\n    }\n\n    function withDraw() public {\n        if(msg.sender == _owner)\n            payable(msg.sender).transfer(address(this).balance);\n    }\n}\n",
  "sourcePath": "C:\\Users\\Nithiya\\NUS Msc DigitalFintech\\Semester 2\\FT5004 - Programming for Blockchain Applications\\Lab\\Lab 3\\TruffleInfura\\contracts\\DiceMarket.sol",
  "compiler": {
    "name": "solc",
    "version": "0.8.13+commit.abaa5c0e.Emscripten.clang"
  },
  "schemaVersion": "3.4.6",
  "updatedAt": "2022-03-28T15:31:03.786Z",
  "devdoc": {
    "kind": "dev",
    "methods": {},
    "version": 1
  },
  "userdoc": {
    "kind": "user",
    "methods": {},
    "version": 1
  }
}