{
  "contractName": "Dice",
  "abi": [
    {
      "anonymous": false,
      "inputs": [
        {
          "indexed": false,
          "internalType": "uint256",
          "name": "diceId",
          "type": "uint256"
        }
      ],
      "name": "luckytimesEvent",
      "type": "event"
    },
    {
      "anonymous": false,
      "inputs": [
        {
          "indexed": false,
          "internalType": "uint256",
          "name": "diceId",
          "type": "uint256"
        },
        {
          "indexed": false,
          "internalType": "uint8",
          "name": "newNumber",
          "type": "uint8"
        }
      ],
      "name": "rolled",
      "type": "event"
    },
    {
      "anonymous": false,
      "inputs": [
        {
          "indexed": false,
          "internalType": "uint256",
          "name": "diceId",
          "type": "uint256"
        }
      ],
      "name": "rolling",
      "type": "event"
    },
    {
      "inputs": [
        {
          "internalType": "uint256",
          "name": "",
          "type": "uint256"
        }
      ],
      "name": "dices",
      "outputs": [
        {
          "internalType": "uint8",
          "name": "numberOfSides",
          "type": "uint8"
        },
        {
          "internalType": "uint8",
          "name": "color",
          "type": "uint8"
        },
        {
          "internalType": "uint8",
          "name": "currentNumber",
          "type": "uint8"
        },
        {
          "internalType": "enum Dice.diceState",
          "name": "state",
          "type": "uint8"
        },
        {
          "internalType": "uint256",
          "name": "creationValue",
          "type": "uint256"
        },
        {
          "internalType": "uint256",
          "name": "luckytimes",
          "type": "uint256"
        },
        {
          "internalType": "address",
          "name": "owner",
          "type": "address"
        },
        {
          "internalType": "address",
          "name": "prevOwner",
          "type": "address"
        }
      ],
      "stateMutability": "view",
      "type": "function"
    },
    {
      "inputs": [],
      "name": "numDices",
      "outputs": [
        {
          "internalType": "uint256",
          "name": "",
          "type": "uint256"
        }
      ],
      "stateMutability": "view",
      "type": "function"
    },
    {
      "inputs": [
        {
          "internalType": "uint8",
          "name": "numberOfSides",
          "type": "uint8"
        },
        {
          "internalType": "uint8",
          "name": "color",
          "type": "uint8"
        }
      ],
      "name": "add",
      "outputs": [
        {
          "internalType": "uint256",
          "name": "",
          "type": "uint256"
        }
      ],
      "stateMutability": "payable",
      "type": "function"
    },
    {
      "inputs": [
        {
          "internalType": "uint256",
          "name": "diceId",
          "type": "uint256"
        }
      ],
      "name": "roll",
      "outputs": [],
      "stateMutability": "nonpayable",
      "type": "function"
    },
    {
      "inputs": [
        {
          "internalType": "uint256",
          "name": "diceId",
          "type": "uint256"
        }
      ],
      "name": "stopRoll",
      "outputs": [],
      "stateMutability": "nonpayable",
      "type": "function"
    },
    {
      "inputs": [
        {
          "internalType": "uint256",
          "name": "diceId",
          "type": "uint256"
        },
        {
          "internalType": "address",
          "name": "newOwner",
          "type": "address"
        }
      ],
      "name": "transfer",
      "outputs": [],
      "stateMutability": "nonpayable",
      "type": "function"
    },
    {
      "inputs": [
        {
          "internalType": "uint256",
          "name": "diceId",
          "type": "uint256"
        },
        {
          "internalType": "address",
          "name": "newOwner",
          "type": "address"
        }
      ],
      "name": "transferAfterBuy",
      "outputs": [],
      "stateMutability": "nonpayable",
      "type": "function"
    },
    {
      "inputs": [
        {
          "internalType": "uint256",
          "name": "diceId",
          "type": "uint256"
        }
      ],
      "name": "getDiceSides",
      "outputs": [
        {
          "internalType": "uint8",
          "name": "",
          "type": "uint8"
        }
      ],
      "stateMutability": "view",
      "type": "function"
    },
    {
      "inputs": [
        {
          "internalType": "uint256",
          "name": "diceId",
          "type": "uint256"
        }
      ],
      "name": "getDiceNumber",
      "outputs": [
        {
          "internalType": "uint8",
          "name": "",
          "type": "uint8"
        }
      ],
      "stateMutability": "view",
      "type": "function"
    },
    {
      "inputs": [
        {
          "internalType": "uint256",
          "name": "diceId",
          "type": "uint256"
        }
      ],
      "name": "getDiceValue",
      "outputs": [
        {
          "internalType": "uint256",
          "name": "",
          "type": "uint256"
        }
      ],
      "stateMutability": "view",
      "type": "function"
    },
    {
      "inputs": [
        {
          "internalType": "uint256",
          "name": "diceId",
          "type": "uint256"
        }
      ],
      "name": "getOwner",
      "outputs": [
        {
          "internalType": "address",
          "name": "",
          "type": "address"
        }
      ],
      "stateMutability": "view",
      "type": "function"
    },
    {
      "inputs": [
        {
          "internalType": "uint256",
          "name": "diceId",
          "type": "uint256"
        }
      ],
      "name": "getPrevOwner",
      "outputs": [
        {
          "internalType": "address",
          "name": "",
          "type": "address"
        }
      ],
      "stateMutability": "view",
      "type": "function"
    },
    {
      "inputs": [
        {
          "internalType": "uint256",
          "name": "diceId",
          "type": "uint256"
        }
      ],
      "name": "getLuckyTimes",
      "outputs": [
        {
          "internalType": "uint256",
          "name": "",
          "type": "uint256"
        }
      ],
      "stateMutability": "view",
      "type": "function"
    },
    {
      "inputs": [
        {
          "internalType": "uint256",
          "name": "diceId",
          "type": "uint256"
        }
      ],
      "name": "destroyDice",
      "outputs": [],
      "stateMutability": "payable",
      "type": "function"
    }
  ],
  "bytecode": "0x60806040526000805534801561001457600080fd5b5061156e806100246000396000f3fe6080604052600436106100dd5760003560e01c8063a98c5b711161007f578063c41a360a11610059578063c41a360a146102cd578063de2271fe1461030a578063ee2fa39c14610335578063f2d03fcf14610372576100dd565b8063a98c5b7114610237578063b7760c8f14610274578063bb4e3f4d1461029d576100dd565b806329265db0116100bb57806329265db01461015d5780638c8f53a414610179578063912475ba146101b6578063a819604c146101fa576100dd565b80631b9194c6146100e25780631e76dcdd1461010b5780631f7b4f3014610134575b600080fd5b3480156100ee57600080fd5b5061010960048036038101906101049190611055565b6103af565b005b34801561011757600080fd5b50610132600480360381019061012d9190611095565b6104a3565b005b34801561014057600080fd5b5061015b60048036038101906101569190611095565b6106dd565b005b61017760048036038101906101729190611095565b610805565b005b34801561018557600080fd5b506101a0600480360381019061019b9190611095565b6109af565b6040516101ad91906110d1565b60405180910390f35b3480156101c257600080fd5b506101dd60048036038101906101d89190611095565b6109df565b6040516101f198979695949392919061118e565b60405180910390f35b34801561020657600080fd5b50610221600480360381019061021c9190611095565b610a9b565b60405161022e91906110d1565b60405180910390f35b34801561024357600080fd5b5061025e60048036038101906102599190611095565b610acb565b60405161026b919061120c565b60405180910390f35b34801561028057600080fd5b5061029b60048036038101906102969190611055565b610b08565b005b6102b760048036038101906102b29190611253565b610c6c565b6040516102c491906110d1565b60405180910390f35b3480156102d957600080fd5b506102f460048036038101906102ef9190611095565b610ed9565b6040516103019190611293565b60405180910390f35b34801561031657600080fd5b5061031f610f29565b60405161032c91906110d1565b60405180910390f35b34801561034157600080fd5b5061035c60048036038101906103579190611095565b610f2f565b604051610369919061120c565b60405180910390f35b34801561037e57600080fd5b5061039960048036038101906103949190611095565b610f6c565b6040516103a69190611293565b60405180910390f35b8160005481106103be57600080fd5b6001600084815260200190815260200160002060030160009054906101000a900473ffffffffffffffffffffffffffffffffffffffff166001600085815260200190815260200160002060040160006101000a81548173ffffffffffffffffffffffffffffffffffffffff021916908373ffffffffffffffffffffffffffffffffffffffff160217905550816001600085815260200190815260200160002060030160006101000a81548173ffffffffffffffffffffffffffffffffffffffff021916908373ffffffffffffffffffffffffffffffffffffffff160217905550505050565b803373ffffffffffffffffffffffffffffffffffffffff166001600083815260200190815260200160002060030160009054906101000a900473ffffffffffffffffffffffffffffffffffffffff1673ffffffffffffffffffffffffffffffffffffffff161461051257600080fd5b81600054811061052157600080fd5b60006001600085815260200190815260200160002060000160036101000a81548160ff0219169083600181111561055b5761055a611108565b5b02179055506000600180600086815260200190815260200160002060000160009054906101000a900460ff1660ff1660018661059791906112dd565b426105a29190611333565b6105ac91906113bc565b6105b691906113ed565b9050806001600086815260200190815260200160002060000160026101000a81548160ff021916908360ff1602179055506001600085815260200190815260200160002060000160009054906101000a900460ff1660ff166001600086815260200190815260200160002060000160029054906101000a900460ff1660ff160361069e5760016000858152602001908152602001600020600201600081548092919061066190611424565b91905055507f2352c307370c87494ff4d210aed715fb1369dd065db4eb1de29183e96c2af4ec8460405161069591906110d1565b60405180910390a15b7ffca7e5ead94c99a33f4db0e5e7ed5266f833f73d27b83852ab0429662c60f5bf84826040516106cf92919061146c565b60405180910390a150505050565b803373ffffffffffffffffffffffffffffffffffffffff166001600083815260200190815260200160002060030160009054906101000a900473ffffffffffffffffffffffffffffffffffffffff1673ffffffffffffffffffffffffffffffffffffffff161461074c57600080fd5b81600054811061075b57600080fd5b600180600085815260200190815260200160002060000160036101000a81548160ff0219169083600181111561079457610793611108565b5b021790555060006001600085815260200190815260200160002060000160026101000a81548160ff021916908360ff1602179055507f168812357336ee7b54afff4280d17ba364831e5c2d0eb5a3fa2d2634e5e77a86836040516107f891906110d1565b60405180910390a1505050565b803373ffffffffffffffffffffffffffffffffffffffff166001600083815260200190815260200160002060030160009054906101000a900473ffffffffffffffffffffffffffffffffffffffff1673ffffffffffffffffffffffffffffffffffffffff161461087457600080fd5b81600054811061088357600080fd5b60006001600085815260200190815260200160002060010154905060016000858152602001908152602001600020600080820160006101000a81549060ff02191690556000820160016101000a81549060ff02191690556000820160026101000a81549060ff02191690556000820160036101000a81549060ff0219169055600182016000905560028201600090556003820160006101000a81549073ffffffffffffffffffffffffffffffffffffffff02191690556004820160006101000a81549073ffffffffffffffffffffffffffffffffffffffff021916905550503373ffffffffffffffffffffffffffffffffffffffff166108fc829081150290604051600060405180830381858888f193505050501580156109a8573d6000803e3d6000fd5b5050505050565b60008160005481106109c057600080fd5b6001600084815260200190815260200160002060020154915050919050565b60016020528060005260406000206000915090508060000160009054906101000a900460ff16908060000160019054906101000a900460ff16908060000160029054906101000a900460ff16908060000160039054906101000a900460ff16908060010154908060020154908060030160009054906101000a900473ffffffffffffffffffffffffffffffffffffffff16908060040160009054906101000a900473ffffffffffffffffffffffffffffffffffffffff16905088565b6000816000548110610aac57600080fd5b6001600084815260200190815260200160002060010154915050919050565b6000816000548110610adc57600080fd5b6001600084815260200190815260200160002060000160029054906101000a900460ff16915050919050565b813373ffffffffffffffffffffffffffffffffffffffff166001600083815260200190815260200160002060030160009054906101000a900473ffffffffffffffffffffffffffffffffffffffff1673ffffffffffffffffffffffffffffffffffffffff1614610b7757600080fd5b826000548110610b8657600080fd5b6001600085815260200190815260200160002060030160009054906101000a900473ffffffffffffffffffffffffffffffffffffffff166001600086815260200190815260200160002060040160006101000a81548173ffffffffffffffffffffffffffffffffffffffff021916908373ffffffffffffffffffffffffffffffffffffffff160217905550826001600086815260200190815260200160002060030160006101000a81548173ffffffffffffffffffffffffffffffffffffffff021916908373ffffffffffffffffffffffffffffffffffffffff16021790555050505050565b6000808360ff1611610c7d57600080fd5b662386f26fc100003411610cc6576040517f08c379a0000000000000000000000000000000000000000000000000000000008152600401610cbd90611518565b60405180910390fd5b60006040518061010001604052808560ff1681526020018460ff16815260200160018660ff1642610cf791906113bc565b610d0191906113ed565b60ff16815260200160006001811115610d1d57610d1c611108565b5b8152602001348152602001600081526020013373ffffffffffffffffffffffffffffffffffffffff168152602001600073ffffffffffffffffffffffffffffffffffffffff1681525090506000806000815480929190610d7c90611424565b919050559050816001600083815260200190815260200160002060008201518160000160006101000a81548160ff021916908360ff16021790555060208201518160000160016101000a81548160ff021916908360ff16021790555060408201518160000160026101000a81548160ff021916908360ff16021790555060608201518160000160036101000a81548160ff02191690836001811115610e2457610e23611108565b5b02179055506080820151816001015560a0820151816002015560c08201518160030160006101000a81548173ffffffffffffffffffffffffffffffffffffffff021916908373ffffffffffffffffffffffffffffffffffffffff16021790555060e08201518160040160006101000a81548173ffffffffffffffffffffffffffffffffffffffff021916908373ffffffffffffffffffffffffffffffffffffffff160217905550905050809250505092915050565b6000816000548110610eea57600080fd5b6001600084815260200190815260200160002060030160009054906101000a900473ffffffffffffffffffffffffffffffffffffffff16915050919050565b60005481565b6000816000548110610f4057600080fd5b6001600084815260200190815260200160002060000160009054906101000a900460ff16915050919050565b6000816000548110610f7d57600080fd5b6001600084815260200190815260200160002060040160009054906101000a900473ffffffffffffffffffffffffffffffffffffffff16915050919050565b600080fd5b6000819050919050565b610fd481610fc1565b8114610fdf57600080fd5b50565b600081359050610ff181610fcb565b92915050565b600073ffffffffffffffffffffffffffffffffffffffff82169050919050565b600061102282610ff7565b9050919050565b61103281611017565b811461103d57600080fd5b50565b60008135905061104f81611029565b92915050565b6000806040838503121561106c5761106b610fbc565b5b600061107a85828601610fe2565b925050602061108b85828601611040565b9150509250929050565b6000602082840312156110ab576110aa610fbc565b5b60006110b984828501610fe2565b91505092915050565b6110cb81610fc1565b82525050565b60006020820190506110e660008301846110c2565b92915050565b600060ff82169050919050565b611102816110ec565b82525050565b7f4e487b7100000000000000000000000000000000000000000000000000000000600052602160045260246000fd5b6002811061114857611147611108565b5b50565b600081905061115982611137565b919050565b60006111698261114b565b9050919050565b6111798161115e565b82525050565b61118881611017565b82525050565b6000610100820190506111a4600083018b6110f9565b6111b1602083018a6110f9565b6111be60408301896110f9565b6111cb6060830188611170565b6111d860808301876110c2565b6111e560a08301866110c2565b6111f260c083018561117f565b6111ff60e083018461117f565b9998505050505050505050565b600060208201905061122160008301846110f9565b92915050565b611230816110ec565b811461123b57600080fd5b50565b60008135905061124d81611227565b92915050565b6000806040838503121561126a57611269610fbc565b5b60006112788582860161123e565b92505060206112898582860161123e565b9150509250929050565b60006020820190506112a8600083018461117f565b92915050565b7f4e487b7100000000000000000000000000000000000000000000000000000000600052601160045260246000fd5b60006112e882610fc1565b91506112f383610fc1565b9250827fffffffffffffffffffffffffffffffffffffffffffffffffffffffffffffffff03821115611328576113276112ae565b5b828201905092915050565b600061133e82610fc1565b915061134983610fc1565b9250817fffffffffffffffffffffffffffffffffffffffffffffffffffffffffffffffff0483118215151615611382576113816112ae565b5b828202905092915050565b7f4e487b7100000000000000000000000000000000000000000000000000000000600052601260045260246000fd5b60006113c782610fc1565b91506113d283610fc1565b9250826113e2576113e161138d565b5b828206905092915050565b60006113f8826110ec565b9150611403836110ec565b92508260ff03821115611419576114186112ae565b5b828201905092915050565b600061142f82610fc1565b91507fffffffffffffffffffffffffffffffffffffffffffffffffffffffffffffffff8203611461576114606112ae565b5b600182019050919050565b600060408201905061148160008301856110c2565b61148e60208301846110f9565b9392505050565b600082825260208201905092915050565b7f6174206c6561737420302e303120455448206973206e656564656420746f207360008201527f7061776e2061206e657720646963650000000000000000000000000000000000602082015250565b6000611502602f83611495565b915061150d826114a6565b604082019050919050565b60006020820190508181036000830152611531816114f5565b905091905056fea26469706673582212207f609c0b251eb272c5071a4498a42f19752a258b0e424ccfebff4be82f40c22c64736f6c634300080d0033",
  "immutableReferences": {},
  "source": "// SPDX-License-Identifier: MIT\npragma solidity ^0.8.0;\n\ncontract Dice {\n\n    enum diceState { stationary, rolling }\n\n    struct dice {\n        uint8 numberOfSides;\n        uint8 color;\n        uint8 currentNumber;\n        diceState state;\n        uint256 creationValue; // amount given to smart contract in ETH when dice is created\n        uint256 luckytimes;\n        address owner;\n        address prevOwner;\n    }\n\n    event rolling (uint256 diceId);\n    event rolled (uint256 diceId, uint8 newNumber);\n    event luckytimesEvent(uint256 diceId);\n\n    uint256 public numDices = 0;\n    mapping(uint256 => dice) public dices;\n\n\n    //function to create a new dice, and add to 'dices' map. requires at least 0.01ETH to create\n    function add(\n        uint8 numberOfSides,\n        uint8 color\n    ) public payable returns(uint256) {\n        require(numberOfSides > 0);\n        require(msg.value > 0.01 ether, \"at least 0.01 ETH is needed to spawn a new dice\");\n\n        //new dice object\n        dice memory newDice = dice(\n            numberOfSides,\n            color,\n            (uint8)(block.timestamp % numberOfSides) + 1,  //non-secure random number\n            diceState.stationary,\n            msg.value,\n            0,\n            msg.sender,  //owner\n            address(0)\n        );\n\n        uint256 newDiceId = numDices++;\n        dices[newDiceId] = newDice; //commit to state variable\n        return newDiceId;   //return new diceId\n    }\n\n    //modifier to ensure a function is callable only by its owner\n    modifier ownerOnly(uint256 diceId) {\n        require(dices[diceId].owner == msg.sender);\n        _;\n    }\n\n    modifier validDiceId(uint256 diceId) {\n        require(diceId < numDices);\n        _;\n    }\n\n    //owner can roll a dice\n    function roll(uint256 diceId) external ownerOnly(diceId) validDiceId(diceId) {\n            dices[diceId].state = diceState.rolling;    //set state to rolling\n            dices[diceId].currentNumber = 0;    //number will become 0 while rolling\n            emit rolling(diceId);   //emit rolling event\n    }\n\n    function stopRoll(uint256 diceId) external ownerOnly(diceId) validDiceId(diceId) {\n            dices[diceId].state = diceState.stationary; //set state to stationary\n\n            //this is not a secure randomization\n            uint8 newNumber = (uint8)((block.timestamp*(diceId+1)) % dices[diceId].numberOfSides) + 1;\n            dices[diceId].currentNumber = newNumber;\n            if(dices[diceId].currentNumber == dices[diceId].numberOfSides){\n                dices[diceId].luckytimes++;\n                emit luckytimesEvent(diceId);\n            }\n            emit rolled(diceId, newNumber); //emit rolled\n    }\n\n    //transfer ownership to new owner\n    function transfer(uint256 diceId, address newOwner) external ownerOnly(diceId) validDiceId(diceId) {\n        dices[diceId].prevOwner = dices[diceId].owner;\n        dices[diceId].owner = newOwner;\n    }\n\n    function transferAfterBuy(uint256 diceId, address newOwner) external validDiceId(diceId) {\n        dices[diceId].prevOwner = dices[diceId].owner;\n        dices[diceId].owner = newOwner;\n    }\n\n    //get number of sides of dice\n    function getDiceSides(uint256 diceId) public view validDiceId(diceId) returns (uint8) {\n        return dices[diceId].numberOfSides;\n    }\n\n    //get current dice number\n    function getDiceNumber(uint256 diceId) public view validDiceId(diceId) returns (uint8) {\n        return dices[diceId].currentNumber;\n    }\n\n    //get ether put in during creation\n    function getDiceValue(uint256 diceId) external view validDiceId(diceId) returns (uint256) {\n        return dices[diceId].creationValue;\n    }\n\n    function getOwner(uint256 diceId) external view validDiceId(diceId) returns (address) {\n        return dices[diceId].owner;\n    }\n\n    function getPrevOwner(uint256 diceId) external view validDiceId(diceId) returns(address) {\n        return dices[diceId].prevOwner;\n    }\n\n    function getLuckyTimes(uint256 diceId) public view validDiceId(diceId) returns(uint256){\n        return dices[diceId].luckytimes;\n    }\n\n    function destroyDice(uint256 diceId) payable public ownerOnly(diceId) validDiceId(diceId) {\n        //for security: \"check-effect-interact\" rule\n        uint256 value = dices[diceId].creationValue;\n        delete dices[diceId];\n        payable(msg.sender).transfer(value);\n    }\n\n}\n",
  "sourcePath": "C:\\Users\\Nithiya\\NUS Msc DigitalFintech\\Semester 2\\FT5004 - Programming for Blockchain Applications\\Lab\\Lab 3\\TruffleInfura\\contracts\\Dice.sol",
  "compiler": {
    "name": "solc",
    "version": "0.8.13+commit.abaa5c0e.Emscripten.clang"
  },
  "schemaVersion": "3.4.6",
  "updatedAt": "2022-03-28T15:46:53.468Z",
  "devdoc": {
    "kind": "dev",
    "methods": {},
    "version": 1
  },
  "userdoc": {
    "kind": "user",
    "methods": {},
    "version": 1
  }
}